:0C00000021C0FECFFDCFFCCF0BC1FACF1A
:10000C00F9CFF8CFF7CFF6CFF5CFF4CFF3CFF2CFC0
:10001C00F1CFF0CFEFCFEECFEDCFC0F9A4B09992E6
:10002C0082F88090FFBF6400C80090012003F8FFA5
:10003C00FCFFFEFFFFFF0000F894EE27ECBBF1E0A5
:10004C00FBBFEBBFE5BFF8E1F1BDE1BD8DE0A2E088
:10005C00BB27ED938A95E9F780E094E0A0E6ED9359
:10006C000197E9F7E2E4F0E085919591009761F052
:10007C00A591B59105901590BF01F00105900D92D9
:10008C000197E1F7FB01F0CFEFE5EDBFE4E0EEBF48
:10009C00C0E6D1E0F8C00024601470040CF04CC031
:1000AC00ECE9FFEFE615F705E4F4EAE0E093600114
:1000BC00EBE0E0936101F30191D2DF01EAE0F0E0C3
:1000CC00BBD2E0936301D301EAE0F0E0B0D23F0190
:1000DC00F30184D2DF01EAE0F0E0AED2E0936201FA
:1000EC002AC0E8E1FCEFE615F7052CF5EBE0E09310
:1000FC006001F30173D2DF01EAE0F0E09DD2E093FE
:10010C006301D301EAE0F0E092D23F01F30166D241
:10011C00DF01EAE0F0E090D2E0936201D301EAE083
:10012C00F0E085D23F01F30159D2DF01EAE0F0E0C3
:10013C0083D2E09361016DC0E4E6F0E06E167F06B9
:10014C00BCF4EAE0E0936001E0936101D301EAE0E2
:10015C00F0E072D2E0936301D301EAE0F0E067D201
:10016C003F01D301EAE0F0E067D2E093620151C0B5
:10017C00E8EEF3E06E167F0604F5EAE0E09360012A
:10018C00D301EAE0F0E058D2E0936301D301EAE056
:10019C00F0E04DD23F01D301EAE0F0E04DD2E09324
:1001AC006201D301EAE0F0E042D23F01D301EAE080
:1001BC00F0E042D2E09361012CC0E0E1F7E26E1670
:1001CC007F063CF5D301EAE0F0E036D2E093630120
:1001DC00D301EAE0F0E02BD23F01D301EAE0F0E0FA
:1001EC002BD2E0936201D301EAE0F0E020D23F0190
:1001FC00D301EAE0F0E020D2E0936101D301EAE020
:10020C00F0E015D23F01D301EAE0F0E015D2E09323
:10021C00600108950A92EA93FA93EFB7EA93E52DF9
:10022C00E03019F4AB98A89A19C0E13019F4A898E9
:10023C00A99A14C0E23071F4A998AA9AE52DF0E0BD
:10024C00E05AFE4FE081F0E0EA5DFF4F049002BA05
:10025C0097980EC0E33061F4AA98AB9AE52DF0E0C4
:10026C00E05AFE4FE081F0E0EA5DFF4F049002BAE5
:10027C005394E4E0E51509F45524E991EFBFF991A5
:10028C00E99109901895E0E0E8BBE7BBE5BBEFE02E
:10029C00E4BBE0E0E2BBEFEFE1BBE0E0E3BFE2BFD9
:1002AC00EFBDEEBDEDBDECBDE7BDE6BDEBBDEABD02
:1002BC00E9BDE8BDE2BDE4E0E5BDE0E0E4BDE3BDE1
:1002CC00E5BFE0E4E9BFE0E8E8B9E0E0E0BF20D159
:1002DC00E0E0F0E0FA93EA93ECEEEA93EEE6EA93D0
:1002EC00E3E0EA93C0D07894E0E0F0E0FA93EA938C
:1002FC0062D0A0E0B0E080E291E452D2ECD13F01B8
:10030C00E0E2FEE4E615F70544F4E0E0F0EAE61975
:10031C00F7093F01F30162D13F01BDDEE8EEF3E0E6
:10032C00FA93EA93E9D0E0CFFFCF1A93F1D0E03003
:10033C0019F4E0E0188195C0E981FA81309779F0E1
:10034C00E5E5EA932BD110E0A981BA81ED91A9835F
:10035C00BA83EA9323D11F5F1830B0F303C0ECECDF
:10036C00EA931CD1E1E018817CC068D2EC81FD815C
:10037C00FA93EA93DADFE03011F4E0E019C0EEEB27
:10038C00EA930CD110E024E631E03F932F932F5FDA
:10039C003F4FFFD0AF91BF91EC931F5F1930A8F383
:1003AC00E4E6F1E0FA93EA93E9E0EA9301D127D18C
:1003BC004AD2269608951A93E981FA81FA93EA9320
:1003CC00D4DFE03031F4E0E0FCE36CE176EC188152
:1003DC0048C0E0916801E295EF70E695E3701E2F3E
:1003EC00E981FA81FA93EA93A0DFE03031F4E0E09E
:1003FC00FCE36CE176EC188134C0E4E4EA93CED0F3
:10040C00E12FA2E3B0E0F0E0EE0FFF1FEA0FFB1FBD
:10041C002FD1FA93EA9370D0E981FA81FA93EA9397
:10042C00A4DFE03031F4E0E0FCE36CE176EC188121
:10043C0018C06ED0E12FAAE3B0E0F0E0EE0FFF1F82
:10044C00EA0FFB1F15D1A0916401B0916501EA235D
:10045C00FB23D0D077D1A0E0B0E080E89DE3A0D121
:10046C00188123960895EB81FC81FA93EA935DDF62
:10047C00E03011F4E0E03EC0E881E295E07FEE0F61
:10048C00EF61E883EEE4EA9389D0E981EA9386D0C0
:10049C00EA81EA9383D0E881EA9380D0EB81FC81F6
:1004AC00FA93EA9362DFE03011F4E0E023C0A0910C
:1004BC006701EA81EA1751F4A0916601E981EA1714
:1004CC0029F4A0916801E881EA1711F0E0E012C06C
:1004DC00EB81FC81FA93EA9328DFE03011F4E0E041
:1004EC0009C0E8E4EA935AD0EFE0F0E0FA93EA931B
:1004FC0003D00ED025960895E991F991309639F0F4
:10050C0080ED97E00197F1F7A8953197C9F7089519
:10051C00EE27C298BA9A80EC93E00197F1F7BA985B
:10052C0085E28A95F1F7B29B08958BEC8A95F1F7E9
:10053C00B29BE3958CE093E00197F1F70895BA9A9A
:10054C0085E08A95F1F7BA988DE18A95F1F7889450
:10055C00B2990894E79585ED8A95F1F70895E8949A
:10056C00BA9A85E08A95F1F770FDBA9883E28A957C
:10057C00F1F7B29903C070FF03C0089570FF08959E
:10058C0088EC8A95F1F7BA988DE08A95F1F7689422
:10059C00089568E0D4DF6A95E9F7089568E07991E9
:1005AC00EE27DDDF26F477956A95D9F7E395089564
:1005BC00EE278881882381F068E1A981BA8198E0CF
:1005CC00FD917F2F7E27779508F4E627E795F69522
:1005DC009A95B9F78A9599F723960895F195E1952F
:1005EC00F0400895F09560957095E195FF4F6F4F31
:1005FC007F4F08956F2F660F660B762F0895EE23AD
:10060C00E1E009F0EE2708950024112490E1AA0FEF
:10061C00BB1F001C111C0E1A1F0A18F40E0E1F1EF5
:10062C0001C0A1609A9599F7FD01D001089512D0EF
:10063C00EBDF0EF4D3DF0895E894B7FF04C0A09568
:10064C00B09511966894F7FDC9DFDEDFFD010EF45D
:10065C00C5DF0895E894F7FF02C0C0DF6894B7FFC8
:10066C0006C0A095B095119600F8039400FA089571
:10067C000590F491E02D0895552342F4503811F46F
:10068C00E0FF04C03196691F791F6BF050E85727C3
:10069C0011F45F9373C05F3F31F0660F000C5795F8
:1006AC006795752F08955F9300200AF073C06CC096
:1006BC0050E8192E1522880F991F9527550F8795ED
:1006CC0050E8072E0522660F771F7527550F679583
:1006DC000895689401C0E8945F93F2DF703818F0C5
:1006EC007F3F08F44BC056E1571BAAF45195583084
:1006FC000EF4593030F0EFEFFFEF6FEF7FE777F943
:10070C001AC077275523B9F0EE0FFF1F661F771F0E
:10071C005A95D1F710C07727583028F0EF2FF62FC5
:10072C00672F5850F9CF552331F076956795F7958B
:10073C00E7955A95D1F700200AF454DF5F9108959C
:10074C00689401C0E894309760407040B1F0002488
:10075C0026F0772312F4009445DF172E7EE111204A
:10076C0032F07A95EE0FFF1F661F111CF9CFEF2F99
:10077C00F62F612D5F938ADF5F910895EE27FF2797
:10078C00662777275F910895EFEFFFEF6FE77FEF15
:10079C005F910895EFEFFFEF6FE77FE75F910895AB
:1007AC005F9386DF703851F3903841F3012408943D
:1007BC00791F23F41CF300203AF3ECCF0F921F9314
:1007CC002F933F934F93112722279927689FA001BE
:1007DC008F9F302D410D591F6B9F300D411D591F9F
:1007EC008E9F27D0BF9F25D06A9F23D0BE9F1DD040
:1007FC00AF9F1BD0AE9F110D291F391F491F591FC9
:10080C00E32FF42F652F522F4F913F912F911F9172
:10081C000F9066232AF0550FEE1FFF1F661F02C0B4
:10082C0073954BF229DF5F910895100D211D391F2F
:10083C0002C0200D311D491F591F08953A932A9368
:10084C001A930A9308953B812A811981088108958E
:00000001FF
